{
  "_format": "hh-sol-artifact-1",
  "contractName": "OptionFactory",
  "sourceName": "contracts/OptionFactory.sol",
  "abi": [
    {
      "inputs": [],
      "stateMutability": "nonpayable",
      "type": "constructor"
    },
    {
      "anonymous": false,
      "inputs": [
        {
          "indexed": true,
          "internalType": "address",
          "name": "optionContract",
          "type": "address"
        },
        {
          "indexed": true,
          "internalType": "address",
          "name": "writer",
          "type": "address"
        }
      ],
      "name": "OptionCreated",
      "type": "event"
    },
    {
      "inputs": [
        {
          "internalType": "uint256",
          "name": "",
          "type": "uint256"
        }
      ],
      "name": "allOptions",
      "outputs": [
        {
          "internalType": "address",
          "name": "",
          "type": "address"
        }
      ],
      "stateMutability": "view",
      "type": "function"
    },
    {
      "inputs": [
        {
          "internalType": "uint256",
          "name": "hurstExponent",
          "type": "uint256"
        },
        {
          "internalType": "uint256",
          "name": "meanReversionSpeed",
          "type": "uint256"
        },
        {
          "internalType": "uint256",
          "name": "volatility",
          "type": "uint256"
        },
        {
          "internalType": "uint256",
          "name": "meanGasPrice",
          "type": "uint256"
        },
        {
          "internalType": "uint256",
          "name": "minPremium",
          "type": "uint256"
        },
        {
          "internalType": "uint256",
          "name": "maxPrice",
          "type": "uint256"
        },
        {
          "internalType": "uint64",
          "name": "availableBlocks",
          "type": "uint64"
        }
      ],
      "name": "createOption",
      "outputs": [
        {
          "internalType": "address",
          "name": "",
          "type": "address"
        }
      ],
      "stateMutability": "payable",
      "type": "function"
    },
    {
      "inputs": [],
      "name": "getAllOptions",
      "outputs": [
        {
          "internalType": "address[]",
          "name": "",
          "type": "address[]"
        }
      ],
      "stateMutability": "view",
      "type": "function"
    },
    {
      "inputs": [
        {
          "internalType": "address",
          "name": "",
          "type": "address"
        }
      ],
      "name": "isActiveOption",
      "outputs": [
        {
          "internalType": "bool",
          "name": "",
          "type": "bool"
        }
      ],
      "stateMutability": "view",
      "type": "function"
    },
    {
      "inputs": [
        {
          "internalType": "address",
          "name": "",
          "type": "address"
        }
      ],
      "name": "isOptionContract",
      "outputs": [
        {
          "internalType": "bool",
          "name": "",
          "type": "bool"
        }
      ],
      "stateMutability": "view",
      "type": "function"
    },
    {
      "inputs": [
        {
          "internalType": "address",
          "name": "optionAddress",
          "type": "address"
        }
      ],
      "name": "isValidOption",
      "outputs": [
        {
          "internalType": "bool",
          "name": "",
          "type": "bool"
        }
      ],
      "stateMutability": "view",
      "type": "function"
    }
  ],
  "bytecode": "0x60a08060405234603557734200000000000000000000000000000000000015608052612d8e908161003b82396080518160a30152f35b600080fdfe608080604052600436101561001357600080fd5b60003560e01c9081631a7db9c414610509575080633b2cd71d146104c65780634b4b0d37146103fb5780638ea745b8146103b9578063c77911aa146103765763dadf33a91461006157600080fd5b60e03660031901126103715760c43567ffffffffffffffff811680910361037157341561032c5780156102dd576040516341c0fac560e11b81526020816004817f00000000000000000000000000000000000000000000000000000000000000006001600160a01b03165afa90811561025b57600091610293575b50906040519060c0820182811067ffffffffffffffff8211176102675760405260043582526020820191602435835260408101936044358552606082019260643584526080830190608435825267ffffffffffffffff60a085019360a435855216019367ffffffffffffffff851161027d57604051966127bd968789019589871067ffffffffffffffff8811176102675767ffffffffffffffff8a986101009a61059c8b393389521660208801525160408701525160608601525160808501525160a08401525160c08301525160e08201520301906000f0801561025b576001600160a01b031660008181526001602081905260408220805460ff191690911790555468010000000000000000811015610267578060016102009201600055610549565b81546001600160a01b0360039290921b91821b19169083901b1790556000808080348582f11561025b5760405160209133817fbfb6fe20509a93711e236e88c56666be96d2d9f508df251f39a8af0de09ca6c6600080a38152f35b6040513d6000823e3d90fd5b634e487b7160e01b600052604160045260246000fd5b634e487b7160e01b600052601160045260246000fd5b6020813d6020116102d5575b816102ac60209383610579565b810103126102d157519067ffffffffffffffff821682036102ce5750386100dc565b80fd5b5080fd5b3d915061029f565b60405162461bcd60e51b815260206004820152602160248201527f4d75737420626520617661696c61626c6520666f7220736f6d6520626c6f636b6044820152607360f81b6064820152608490fd5b60405162461bcd60e51b815260206004820152601760248201527f4d757374206465706f73697420636f6c6c61746572616c0000000000000000006044820152606490fd5b600080fd5b34610371576020366003190112610371576004356001600160a01b03811690819003610371576000526001602052602060ff604060002054166040519015158152f35b3461037157602036600319011261037157600435600054811015610371576103e2602091610549565b905460405160039290921b1c6001600160a01b03168152f35b346103715760003660031901126103715760405180602060005492838152018092600080527f290decd9548b62a8d60345a988386fc84ba6bc95484008f6362f93160ef3e5639060005b8181106104a7575050508161045b910382610579565b6040519182916020830190602084525180915260408301919060005b818110610485575050500390f35b82516001600160a01b0316845285945060209384019390920191600101610477565b82546001600160a01b0316845260209093019260019283019201610445565b34610371576020366003190112610371576004356001600160a01b03811690819003610371576000526002602052602060ff604060002054166040519015158152f35b34610371576020366003190112610371576004356001600160a01b0381169190829003610371576020916000526001825260ff6040600020541615158152f35b600054811015610563576000805260206000200190600090565b634e487b7160e01b600052603260045260246000fd5b90601f8019910116810190811067ffffffffffffffff8211176102675760405256fe60e06040523461018e576040516127bd38819003601f8101601f191683016001600160401b038111848210176101785783928291604052833981010390610100821261018e578051916001600160a01b038316830361018e5760c0602083015191603f19011261018e5760405160c081016001600160401b0381118282101761017857604052604083015181526060830151602082019081526080840151916040810192835260a0850151936060820194855260e060c0870151966080840197885201519660a0830197885260016000553360a05260c052734200000000000000000000000000000000000015608052600155516002555160035551600455516005555160065551600755604051612629908161019482396080518181816101930152818161067e015281816109fa01528181610cbf01528181610dfe015261122a015260a051818181601c01526105aa015260c0518181816094015281816105f1015281816109b701528181610c100152610c7c0152f35b634e487b7160e01b600052604160045260246000fd5b600080fdfe608060405260043610156100c2575b361561001957600080fd5b337f00000000000000000000000000000000000000000000000000000000000000006001600160a01b0316148015610090575b1561005357005b60405162461bcd60e51b81526020600482015260156024820152742737ba103330b1ba37b93c9037b9103bb934ba32b960591b6044820152606490fd5b50337f00000000000000000000000000000000000000000000000000000000000000006001600160a01b03161461004c565b60003560e01c80621b40f314610da75780630367db1414610d89578063156f1d7414610d68578063363b3a7b14610c5d5780633e370cc814610c3f578063453a2abc14610bfa578063498b21c314610b7757806355f5751014610afb5780638903573014610ab35780639714378c146109a0578063aaa1fc8c1461065b578063b3caba081461063f578063bdd487e2146105d9578063c45a0155146105945763f8c76cf00361000e573461055557600036600319011261055557610184611a7f565b6040516341c0fac560e11b81527f00000000000000000000000000000000000000000000000000000000000000006001600160a01b0316602082600481845afa9081156103d457600492600092610562575b5060209060405193848092635cf2496960e01b82525afa9182156103d457600092610529575b50600954600091811580159190610515575b50156104d0578152600c6020526040812090815461022b81611a1d565b926102396040519485611131565b818452601f1961024883611a1d565b01366020860137825b8281106104a457505050805b825181101561043f576001600160a01b036102788285611a35565b5116908160005260086020526040600020916004830192835460ff8160081c169081610433575b506102b1575b5050600191500161025d565b600181015460405190631116fa6160e11b8252600482015287602482015260208160448173__$327fde318c38c4b77b97ec60841648edb2$__5af49081156103d4576000916103ff575b50620186a0810290808204620186a014901517156103e95761031e9154906111bb565b835461ffff191660011790935561033481611aa1565b82158015610385575b50604080516001600160a01b0392909216825260208201939093526001927fff3f09447cf48c778a31c683615080cb45095443f060003104d47c20fb880cf891a138806102a5565b610391478511156111ce565b600a840290848204600a1417156103e957600080806103be60648295046103b8818a611a10565b99611173565b97858282156103e0575bf1156103d4573861033d565b6040513d6000823e3d90fd5b506108fc6103c8565b634e487b7160e01b600052601160045260246000fd5b906020823d821161042b575b8161041860209383611131565b81010312610428575051386102fb565b80fd5b3d915061040b565b60ff915016153861029f565b5061044b600954611c38565b50600a541561049d5761045c611b21565b90549060031b1c5b60095580158015610477575b6001600055005b600080809381938290610494575b3390f1156103d4578080610470565b506108fc610485565b6000610464565b806104b160019284611b54565b838060a01b0391549060031b1c166104c98288611a35565b5201610251565b60405162461bcd60e51b815260206004820152601860248201527f4e6f2065787069727920696e207468697320626c6f636b7300000000000000006044820152606490fd5b67ffffffffffffffff91501681143861020e565b9091506020813d60201161055a575b8161054560209383611131565b81010312610555575190386101fc565b600080fd5b3d9150610538565b602091925061058690823d841161058d575b61057e8183611131565b810190611153565b91906101d6565b503d610574565b34610555576000366003190112610555576040517f00000000000000000000000000000000000000000000000000000000000000006001600160a01b03168152602090f35b346105555760003660031901126105555760008080807f00000000000000000000000000000000000000000000000000000000000000006001600160a01b0316610624338214611954565b4790828215610636575bf1156103d457005b506108fc61062e565b34610555576000366003190112610555576020604051600a8152f35b6106643661106e565b61066f929192611a7f565b604051635cf2496960e01b81527f00000000000000000000000000000000000000000000000000000000000000006001600160a01b0316602082600481845afa9182156103d45760009261096b575b506020600491604051928380926341c0fac560e11b82525afa80156103d45767ffffffffffffffff9160009161094c575b5016926106fc8585611173565b9233600052600860205260ff60046040600020015460081c16610910576107238686611173565b600181018091116103e95760015411156108d457610742818784611211565b95863410610898577f5d4b22bdf13cddbbf98205f4f52fd8b0d1c98f31f66a7e7505f7a64027214b7a956080956108319360405190610780826110ff565b81526020810186815260046040830192848452606081018d81528b8201946000865260a083019460018652336000526008602052604060002093518455516001840155516002830155516003820155019151151560ff8019845416911617825551151561ff0082549160081b169061ff0019161790556107ff81611b6c565b5080600052600c602052610817336040600020611bde565b50600954801590811561088e575b50610885575b50611173565b9060405192338452602084015260408301526060820152a1803411610857576001600055005b60008080610866819434611a10565b81811561087c575b3390f1156103d45780610470565b506108fc61086e565b6009558861082b565b905081108a610825565b60405162461bcd60e51b8152602060048201526014602482015273496e73756666696369656e74207072656d69756d60601b6044820152606490fd5b60405162461bcd60e51b81526020600482015260146024820152734f7074696f6e206e6f7420617661696c61626c6560601b6044820152606490fd5b60405162461bcd60e51b815260206004820152601460248201527320b63932b0b23c903430b9902837b9b4ba34b7b760611b6044820152606490fd5b610965915060203d60201161058d5761057e8183611131565b866106ef565b9091506020813d602011610998575b8161098760209383611131565b8101031261055557519060206106be565b3d915061097a565b34610555576020366003190112610555576109e5337f00000000000000000000000000000000000000000000000000000000000000006001600160a01b031614611954565b6040516341c0fac560e11b81526020816004817f00000000000000000000000000000000000000000000000000000000000000006001600160a01b03165afa9081156103d457610a8967ffffffffffffffff7f02be84d14116079674b0d73fa3e4dce31936b323e6def010fa89b9c635972e4893602093600091610a96575b5016610a7460015482101561198d565b610a80600a54156119cb565b60043590611173565b80600155604051908152a1005b610aad9150843d861161058d5761057e8183611131565b85610a64565b346105555760003660031901126105555760c06002546003546004546005546006549160075493604051958652602086015260408501526060840152608083015260a0820152f35b34610555576020366003190112610555576004356001600160a01b0381169081900361055557600052600860205260c0604060002060ff815491600181015490600281015460046003830154920154926040519586526020860152604085015260608401528181161515608084015260081c16151560a0820152f35b3461055557600036600319011261055557610b90611a7f565b336000526008602052600460406000200160018154610bb460ff8260081c16611088565b610bc160ff8216156110c9565b61ffff19161790553360005260086020526000600460408220828155826001820155826002820155826003820155015561047033611aa1565b34610555576000366003190112610555576040517f00000000000000000000000000000000000000000000000000000000000000006001600160a01b03168152602090f35b34610555576000366003190112610555576020600954604051908152f35b3461055557366003190160e081126105555760c01361055557610caa337f00000000000000000000000000000000000000000000000000000000000000006001600160a01b031614611954565b6040516341c0fac560e11b81526020816004817f00000000000000000000000000000000000000000000000000000000000000006001600160a01b03165afa80156103d457610d1191600091610d49575b5067ffffffffffffffff6001549116101561198d565b610d1d600a54156119cb565b60048035600255602435600355604435905560643560055560843560065560a43560075560c435600155005b610d62915060203d60201161058d5761057e8183611131565b82610cfb565b34610555576020610d81610d7b3661106e565b91611211565b604051908152f35b34610555576000366003190112610555576020600154604051908152f35b3461055557600036600319011261055557610dc0611a7f565b33600052600860205260406000206004810190610def60ff8354610de8828260081c16611088565b16156110c9565b604051635cf2496960e01b81527f00000000000000000000000000000000000000000000000000000000000000006001600160a01b0316602082600481845afa9182156103d457600092611039575b506020600491604051928380926341c0fac560e11b82525afa80156103d45767ffffffffffffffff9160009161101a575b5016600283015490818110610fe757600182018092116103e95711610fb95760018201549060405191631116fa6160e11b83526004830152602482015260208160448173__$327fde318c38c4b77b97ec60841648edb2$__5af49081156103d457600091610f87575b50620186a0810290808204620186a014901517156103e957610efb9154906111bb565b815461ffff1916600117909155610f1133611aa1565b80158015610f53575b60408051338152602081018490527fff3f09447cf48c778a31c683615080cb45095443f060003104d47c20fb880cf89190a16001600055005b8190610f61478311156111ce565b600090610f7e575b600080809381933390f1156103d45781610f1a565b506108fc610f69565b906020823d602011610fb1575b81610fa160209383611131565b8101031261042857505183610ed8565b3d9150610f94565b60405162461bcd60e51b815260206004820152600660248201526514185cdcd95960d21b6044820152606490fd5b60405162461bcd60e51b815260206004820152600b60248201526a139bdd08195e1c1a5c995960aa1b6044820152606490fd5b611033915060203d60201161058d5761057e8183611131565b85610e6f565b9091506020813d602011611066575b8161105560209383611131565b810103126105555751906020610e3e565b3d9150611048565b606090600319011261055557600435906024359060443590565b1561108f57565b60405162461bcd60e51b815260206004820152601260248201527127379030b1ba34bb32903837b9b4ba34b7b760711b6044820152606490fd5b156110d057565b60405162461bcd60e51b815260206004820152600760248201526614d95d1d1b195960ca1b6044820152606490fd5b60c0810190811067ffffffffffffffff82111761111b57604052565b634e487b7160e01b600052604160045260246000fd5b90601f8019910116810190811067ffffffffffffffff82111761111b57604052565b90816020910312610555575167ffffffffffffffff811681036105555790565b919082018092116103e957565b90633b9aca00820291808304633b9aca0014901517156103e957565b9081670de0b6b3a76400000291670de0b6b3a76400008304036103e957565b818102929181159184041417156103e957565b156111d557565b60405162461bcd60e51b8152602060048201526014602482015273496e73756666696369656e742062616c616e636560601b6044820152606490fd5b604051635cf2496960e01b8152939291906020856004817f00000000000000000000000000000000000000000000000000000000000000006001600160a01b03165afa9485156103d457600095611920575b5060055494600454600354936002549060065495600754936040519a6112888c6110ff565b8b528060208c015260408b0191825260608b0193845260808b0197885260a08b01948552670de0b6b3a764000081116118d957508051670de0b6b3a7640000811161188e57508251670de0b6b3a7640000811161184c5750805160009a906001600160ff1b0310611814576113056113008351611dfa565b611dc6565b6001600160ff1b0384116117d95761132961132e9161132386611dfa565b90611dd7565b611eaa565b8015611793576113b26113ab6113a460208f9a999897969561139b6113958d6113b89861137e8f61135e90611180565b86519081811115611781576113769150875190611a10565b918392611fc5565b91501561177657611390908451611a10565b611180565b9d611180565b9b500151611dfa565b9351611dfa565b9451611dfa565b91612196565b8015611731578360011b90848205600214851517156116b957811561171d57600160ff1b81146000198314166116b95705928b8413156116cd57600119810290600160ff1b81146001166116b957600119820503611624576113296114209161132385611dfa565b670de0b6b3a7640000811161167d5761143890611dfa565b918b83670de0b6b3a7640000039312670de0b6b3a76400008412811690670de0b6b3a7640000851390151617611624578b831315611638578160011b91600283050361162457670de0b6b3a76400006114a36114aa9461149d8397956113239561238f565b94611dd7565b0591611dfa565b05888113156115ef578881126115dd576114c7906113909061226d565b9383831080156115cd576114db8486611a10565b505b848211908115916115c5575b50156115a957509161150c82611506611390946115119651611a10565b92611a10565b611a5f565b670de0b6b3a764000003670de0b6b3a7640000811161159557670de0b6b3a764000091633b9aca006115449204906111bb565b0490620186a0820291808304620186a014901517156115815761157693945051908181106000146115795750906111bb565b90565b9050906111bb565b634e487b7160e01b85526011600452602485fd5b634e487b7160e01b86526011600452602486fd5b9150506115c09150670de0b6b3a764000092611173565b611544565b9050386114e9565b6115d78585611a10565b506114dd565b635467221960e11b8952600452602488fd5b60405162461bcd60e51b815260206004820152600d60248201526c76617269616e63655f7a65726f60981b6044820152606490fd5b634e487b7160e01b8c52601160045260248cfd5b60405162461bcd60e51b815260206004820152601c60248201527f50323a206d65616e526576657273696f6e456666656374203c3d2030000000006044820152606490fd5b60405162461bcd60e51b815260206004820152601460248201527350323a20657870436f6d706f6e656e74203e203160601b6044820152606490fd5b634e487b7160e01b8d52601160045260248dfd5b60405162461bcd60e51b815260206004820152602260248201527f50313a2042617365207363616c696e67206973206c657373207468616e207a65604482015261726f60f01b6064820152608490fd5b634e487b7160e01b8d52601260045260248dfd5b60405162461bcd60e51b815260206004820152601860248201527f50313a207369676d6153717561726564206973207a65726f00000000000000006044820152606490fd5b611390908451611173565b61178a91611a10565b91600192611fc5565b6040516360ab63a760e01b815260206004820152601a60248201527f6d65616e5f726576657273696f6e5f666163746f725f7a65726f0000000000006044820152606490fd5b6040516360ab63a760e01b81526020600482015260126024820152716475726174696f6e5f746f6f5f6c6172676560701b6044820152606490fd5b6040516360ab63a760e01b815260206004820152600f60248201526e6b617070615f746f6f5f6c6172676560881b6044820152606490fd5b60a49060405190639230a13960e01b82526060600483015260056064830152641a1d5c9cdd60da1b60848301526024820152670de0b6b3a76400006044820152fd5b60a49060405190639230a13960e01b825260606004830152600e60648301526d36b2b0b72fb932bb32b939b4b7b760911b60848301526024820152670de0b6b3a76400006044820152fd5b60a49060405190639230a13960e01b825260606004830152600a606483015269766f6c6174696c69747960b01b60848301526024820152670de0b6b3a76400006044820152fd5b90946020823d60201161194c575b8161193b60209383611131565b810103126104285750519338611263565b3d915061192e565b1561195b57565b60405162461bcd60e51b815260206004820152600a6024820152692737ba103bb934ba32b960b11b6044820152606490fd5b1561199457565b60405162461bcd60e51b815260206004820152600f60248201526e5374696c6c20617661696c61626c6560881b6044820152606490fd5b156119d257565b60405162461bcd60e51b81526020600482015260166024820152751058dd1a5d99481c1bdcda5d1a5bdb9cc8195e1a5cdd60521b6044820152606490fd5b919082039182116103e957565b67ffffffffffffffff811161111b5760051b60200190565b8051821015611a495760209160051b010190565b634e487b7160e01b600052603260045260246000fd5b8115611a69570490565b634e487b7160e01b600052601260045260246000fd5b600260005414611a90576002600055565b633ee5aeb560e01b60005260046000fd5b60018060a01b0316806000526008602052611ad26002604060002001549182600052600c6020526040600020611d09565b5080600052600c60205260406000205415611aea5750565b611af381611c38565b5060095414611afe57565b600a5415611b1a57611b0e611b21565b90549060031b1c600955565b6000600955565b600a5415611a4957600a60009081527fc65a7bb8d6351c1cf70c95a316cc6a92839c986682d98bc35f958f4883f9d2a891565b8054821015611a495760005260206000200190600090565b80600052600b60205260406000205415600014611bd857600a54600160401b81101561111b57611bbf611ba8826001859401600a55600a611b54565b819391549060031b91821b91600019901b19161790565b9055600a5490600052600b602052604060002055600190565b50600090565b6001810190826000528160205260406000205415600014611c30578054600160401b81101561111b57611c1b611ba8826001879401855584611b54565b90555491600052602052604060002055600190565b505050600090565b6000818152600b60205260409020548015611d025760001981018181116103e957600a546000198101919082116103e957818103611cc8575b505050600a548015611cb25760001901611c8c81600a611b54565b8154906000199060031b1b19169055600a55600052600b60205260006040812055600190565b634e487b7160e01b600052603160045260246000fd5b611cea611cd9611ba893600a611b54565b90549060031b1c928392600a611b54565b9055600052600b602052604060002055388080611c71565b5050600090565b9060018201918160005282602052604060002054801515600014611dbd5760001981018181116103e95782546000198101919082116103e957818103611d86575b50505080548015611cb2576000190190611d648282611b54565b8154906000199060031b1b191690555560005260205260006040812055600190565b611da6611d96611ba89386611b54565b90549060031b1c92839286611b54565b905560005283602052604060002055388080611d4a565b50505050600090565b600160ff1b81146103e95760000390565b818102929160008212600160ff1b8214166103e95781840514901517156103e957565b6001600160ff1b038111611e0b5790565b63123baf0360e11b60005260045260246000fd5b15611e2657565b60405162461bcd60e51b81526020600482015260116024820152704558505f4f55545f4f465f424f554e445360781b6044820152606490fd5b15611e6657565b60405162461bcd60e51b815260206004820152600d60248201526c4558505f554e444552464c4f5760981b6044820152606490fd5b60001981146103e95760010190565b9060006804c53ecdc18a60000083131580611fb1575b611ec990611e1f565b8215611fa357808312611f6a57670de0b6b3a7640000808404930692670de0b6b3a76400009181611f4b575b5050670de0b6b3a764000090816001905b6008821115611f1c575050611576929350611fc5565b611f3f611f38611f459288611f3286989661119c565b916120f5565b8093611173565b93611e9b565b90611f06565b905b80821015611ef5579091611f6260019161205c565b920190611f4d565b9091611f9a9061132990611f83600160ff1b8213611e5f565b6ec097ce7bc90715b34b9f10000000009350611dc6565b61157691611a5f565b50670de0b6b3a76400009150565b506804c53ecdc18a5fffff19831215611ec0565b919091600083820291600019858209918380841093039280840393146120495782670de0b6b3a7640000111561203757507faccb18165bd6fe31ae1cf318dc5b51eee0e1ba569b88cd74c1773b91fac106699394670de0b6b3a7640000910990828211900360ee1b910360121c170290565b634e487b71905260116020526024601cfd5b505050670de0b6b3a76400009192500490565b9060006725b946ebc0b361738302906000196725b946ebc0b361738509908280831092039180830392146120e45781670de0b6b3a764000011156120375750670de0b6b3a76400006725b946ebc0b361737faccb18165bd6fe31ae1cf318dc5b51eee0e1ba569b88cd74c1773b91fac1066994950990828211900360ee1b910360121c170290565b5050670de0b6b3a764000090049150565b91818302916000198185099383808610950394808603951461218957848311156121705790829109816000038216809204600281600302188082026002030280820260020302808202600203028082026002030280820260020302809102600203029360018380600003040190848311900302920304170290565b82634e487b71600052156003026011186020526024601cfd5b5050906115769250611a5f565b8015611bd8576001906000811380600114612244571561221c575b80029080805b8082116121ed575050600081136001600160ff1b038390048211166103e95760008112600160ff1b8390058212166103e9570290565b90926001600160ff1b0381900481116103e957818416612213575b800292811c906121b7565b80920291612208565b6001600160ff1b038190058112156121b157634e487b7160e01b600052601160045260246000fd5b506001600160ff1b038190048111156121b157634e487b7160e01b600052601160045260246000fd5b600181111561157657806001600160801b82101561237e575b600482600160401b612330941015612371575b640100000000811015612364575b62010000811015612357575b61010081101561234b575b601081101561233f575b1015612337575b60030260011c6122df8184611a5f565b0160011c6122ed8184611a5f565b0160011c6122fb8184611a5f565b0160011c6123098184611a5f565b0160011c6123178184611a5f565b0160011c6123258184611a5f565b0160011c8092611a5f565b8111900390565b60011b6122cf565b811c9160021b916122c8565b60081c91811b916122be565b60101c9160081b916122b3565b60201c9160101b916122a7565b60401c9160201b91612299565b5050608081901c600160401b612286565b9060018211156123c0576123ba670de0b6b3a7640000916113236123b5611576956123ce565b611dfa565b05611eaa565b5050670de0b6b3a764000090565b600181106125b95760018114611bd8578060401b90808204600160401b14901517156103e9576000805b6802000000000000000083101561258e5767b17217f7d1cf79ab82029180830467b17217f7d1cf79ab149015171561257a57509067ffffffffffffffff198101908082116103e9578160401b91808304600160401b14901517156103e957600160401b81018091116103e95761246d91611a5f565b61247781806111bb565b60401c6001905b60148211156124b2575b505050670de0b6b3a7640000810290808204670de0b6b3a764000014901517156103e95760401c90565b9091928360401b848104600160401b14851517156103e9578360401b848104600160401b14851517156103e9576124fd926124f16124f7928694611a5f565b90611173565b946111bb565b928360401c9367ffffffffffffffff1916848104600160401b14851517156103e957600284018085116103e9578060401b90808204600160401b14901517156103e95761254991611a5f565b908115612573576124f761255e928492611a10565b60401c91600281018091116103e9579061247e565b9350612488565b634e487b7160e01b81526011600452602490fd5b909160011c91600181018091116125a557906123f8565b634e487b7160e01b82526011600452602482fd5b60405162461bcd60e51b8152602060048201526012602482015271496e707574206d757374206265203e3d203160701b6044820152606490fdfea2646970667358221220e10cec1a19b08ab69f5d62e69ef192b63ded34e2fca01bc7c933d1d2ce9872d864736f6c634300081b0033a264697066735822122024484224a9a7750b035f0b758faf33d7db887e5756911a3464b73c6c7c2cc31964736f6c634300081b0033",
  "linkReferences": {
    "contracts/GasOptionPricing.sol": {
      "GasOptionPricing": [
        {
          "length": 20,
          "start": 2626
        },
        {
          "length": 20,
          "start": 5663
        }
      ]
    }
  },
  "deployedLinkReferences": {
    "contracts/GasOptionPricing.sol": {
      "GasOptionPricing": [
        {
          "length": 20,
          "start": 2567
        },
        {
          "length": 20,
          "start": 5604
        }
      ]
    }
  }
}