{
  "_format": "hh-sol-artifact-1",
  "contractName": "GasOptionPricing",
  "sourceName": "contracts/GasOptionPricing.sol",
  "abi": [
    {
      "inputs": [
        {
          "internalType": "string",
          "name": "operation",
          "type": "string"
        }
      ],
      "name": "NumericalOverflow",
      "type": "error"
    },
    {
      "inputs": [
        {
          "internalType": "string",
          "name": "param",
          "type": "string"
        },
        {
          "internalType": "uint256",
          "name": "value",
          "type": "uint256"
        },
        {
          "internalType": "uint256",
          "name": "max",
          "type": "uint256"
        }
      ],
      "name": "ParameterOutOfBounds",
      "type": "error"
    },
    {
      "inputs": [
        {
          "internalType": "uint256",
          "name": "expected",
          "type": "uint256"
        },
        {
          "internalType": "uint256",
          "name": "actual",
          "type": "uint256"
        }
      ],
      "name": "PrecisionLossExceeded",
      "type": "error"
    },
    {
      "inputs": [
        {
          "internalType": "int256",
          "name": "value",
          "type": "int256"
        }
      ],
      "name": "SafeCastOverflowedIntToUint",
      "type": "error"
    },
    {
      "inputs": [
        {
          "internalType": "uint256",
          "name": "value",
          "type": "uint256"
        }
      ],
      "name": "SafeCastOverflowedUintToInt",
      "type": "error"
    },
    {
      "inputs": [
        {
          "internalType": "uint256",
          "name": "expectedPrice",
          "type": "uint256"
        },
        {
          "internalType": "uint256",
          "name": "currentGasPrice",
          "type": "uint256"
        },
        {
          "internalType": "uint256",
          "name": "strike",
          "type": "uint256"
        },
        {
          "internalType": "uint256",
          "name": "duration",
          "type": "uint256"
        },
        {
          "components": [
            {
              "internalType": "uint256",
              "name": "meanGasPrice",
              "type": "uint256"
            },
            {
              "internalType": "uint256",
              "name": "volatility",
              "type": "uint256"
            },
            {
              "internalType": "uint256",
              "name": "meanReversionSpeed",
              "type": "uint256"
            },
            {
              "internalType": "uint256",
              "name": "hurstExponent",
              "type": "uint256"
            },
            {
              "internalType": "uint256",
              "name": "minPremium",
              "type": "uint256"
            },
            {
              "internalType": "uint256",
              "name": "maxPrice",
              "type": "uint256"
            }
          ],
          "internalType": "struct GasOptionPricing.PricingParams",
          "name": "params",
          "type": "tuple"
        }
      ],
      "name": "_applyVolatility",
      "outputs": [
        {
          "internalType": "uint256",
          "name": "",
          "type": "uint256"
        }
      ],
      "stateMutability": "pure",
      "type": "function"
    },
    {
      "inputs": [
        {
          "internalType": "uint256",
          "name": "currentGasPrice",
          "type": "uint256"
        },
        {
          "internalType": "uint256",
          "name": "duration",
          "type": "uint256"
        },
        {
          "components": [
            {
              "internalType": "uint256",
              "name": "meanGasPrice",
              "type": "uint256"
            },
            {
              "internalType": "uint256",
              "name": "volatility",
              "type": "uint256"
            },
            {
              "internalType": "uint256",
              "name": "meanReversionSpeed",
              "type": "uint256"
            },
            {
              "internalType": "uint256",
              "name": "hurstExponent",
              "type": "uint256"
            },
            {
              "internalType": "uint256",
              "name": "minPremium",
              "type": "uint256"
            },
            {
              "internalType": "uint256",
              "name": "maxPrice",
              "type": "uint256"
            }
          ],
          "internalType": "struct GasOptionPricing.PricingParams",
          "name": "params",
          "type": "tuple"
        }
      ],
      "name": "_calculateExpectedPrice",
      "outputs": [
        {
          "internalType": "uint256",
          "name": "",
          "type": "uint256"
        }
      ],
      "stateMutability": "pure",
      "type": "function"
    },
    {
      "inputs": [
        {
          "internalType": "uint256",
          "name": "duration",
          "type": "uint256"
        },
        {
          "components": [
            {
              "internalType": "uint256",
              "name": "meanGasPrice",
              "type": "uint256"
            },
            {
              "internalType": "uint256",
              "name": "volatility",
              "type": "uint256"
            },
            {
              "internalType": "uint256",
              "name": "meanReversionSpeed",
              "type": "uint256"
            },
            {
              "internalType": "uint256",
              "name": "hurstExponent",
              "type": "uint256"
            },
            {
              "internalType": "uint256",
              "name": "minPremium",
              "type": "uint256"
            },
            {
              "internalType": "uint256",
              "name": "maxPrice",
              "type": "uint256"
            }
          ],
          "internalType": "struct GasOptionPricing.PricingParams",
          "name": "params",
          "type": "tuple"
        }
      ],
      "name": "_calculateVariance",
      "outputs": [
        {
          "internalType": "uint256",
          "name": "",
          "type": "uint256"
        }
      ],
      "stateMutability": "pure",
      "type": "function"
    },
    {
      "inputs": [
        {
          "internalType": "uint256",
          "name": "strikePrice",
          "type": "uint256"
        },
        {
          "internalType": "uint256",
          "name": "currentGasPrice",
          "type": "uint256"
        }
      ],
      "name": "calculateSettlement",
      "outputs": [
        {
          "internalType": "uint256",
          "name": "",
          "type": "uint256"
        }
      ],
      "stateMutability": "pure",
      "type": "function"
    },
    {
      "inputs": [
        {
          "internalType": "uint256",
          "name": "x",
          "type": "uint256"
        }
      ],
      "name": "ln",
      "outputs": [
        {
          "internalType": "uint256",
          "name": "",
          "type": "uint256"
        }
      ],
      "stateMutability": "pure",
      "type": "function"
    }
  ],
  "bytecode": "0x60808060405234601957611021908161001f823930815050f35b600080fdfe6080604052600436101561001257600080fd5b60003560e01c806301b374ba146102f2578063222df4c2146102d657806324d4e90a146102bd5780637cb379ca1461024d5763c3bbf9b71461005357600080fd5b6101003660031901126102485760243560c0366043190112610248576040519060c0820182811067ffffffffffffffff8211176102325760409081526044358352606435602084015260843590830181815260a435606085015260c435608085015260e43560a0850152906001600160ff1b03106101fa576100d86100dd9151610c10565b610add565b906001600160ff1b0381116101bf57610107916100fc61010292610c10565b9061080a565b610cc0565b9081156101795760209161014061011f600435610465565b835190818111156101675761013791508451906104b3565b91600092610e1a565b90156101585761015091516104b3565b604051908152f35b61016291516104c0565b610150565b610170916104b3565b91600192610e1a565b6040516360ab63a760e01b815260206004820152601a60248201527f6d65616e5f726576657273696f6e5f666163746f725f7a65726f0000000000006044820152606490fd5b6040516360ab63a760e01b81526020600482015260126024820152716475726174696f6e5f746f6f5f6c6172676560701b6044820152606490fd5b6040516360ab63a760e01b815260206004820152600f60248201526e6b617070615f746f6f5f6c6172676560881b6044820152606490fd5b634e487b7160e01b600052604160045260246000fd5b600080fd5b60e03660031901126102485760c03660231901126102485760405160c0810181811067ffffffffffffffff82111761023257602091610150916040526024358152604435838201526064356040820152608435606082015260a435608082015260c43560a082015260043561082d565b6020366003190112610248576020610150600435610508565b60403660031901126102485760206101506024356004356104ed565b6101403660031901126102485760243560c03660831901126102485760405160c0810181811067ffffffffffffffff82111761023257604052608435815260a435602082015260c435604082015260e435606082015261010435608082015260a0810191610124358352610367600435610465565b9261038f61038a61038561037c604435610465565b9560643561082d565b610aee565b610465565b938383108015610455576103a384866104b3565b505b8482119081159161044d575b501561042e5750916103d4826103ce61038a946103d996516104b3565b926104b3565b6104cd565b670de0b6b3a76400000390670de0b6b3a764000082116104185761040f670de0b6b3a764000091633b9aca0060209404906104a0565b04604051908152f35b634e487b7160e01b600052601160045260246000fd5b9050670de0b6b3a7640000925061044891506020936104c0565b61040f565b9050866103b1565b61045f85856104b3565b506103a5565b90633b9aca00820291808304633b9aca00149015171561041857565b9081670de0b6b3a76400000291670de0b6b3a764000083040361041857565b8181029291811591840414171561041857565b9190820391821161041857565b9190820180921161041857565b81156104d7570490565b634e487b7160e01b600052601260045260246000fd5b808210156104fc575050600090565b610505916104b3565b90565b600181106106f957600181146106f3578060401b90808204600160401b1490151715610418576000805b680200000000000000008310156106c85767b17217f7d1cf79ab82029180830467b17217f7d1cf79ab14901517156106b457509067ffffffffffffffff19810190808211610418578160401b91808304600160401b149015171561041857600160401b8101809111610418576105a7916104cd565b6105b181806104a0565b60401c6001905b60148211156105ec575b505050670de0b6b3a7640000810290808204670de0b6b3a764000014901517156104185760401c90565b9091928360401b848104600160401b1485151715610418578360401b848104600160401b1485151715610418576106379261062b6106319286946104cd565b906104c0565b946104a0565b928360401c9367ffffffffffffffff1916848104600160401b14851517156104185760028401808511610418578060401b90808204600160401b149015171561041857610683916104cd565b9081156106ad576106316106989284926104b3565b60401c916002810180911161041857906105b8565b93506105c2565b634e487b7160e01b81526011600452602490fd5b909160011c91600181018091116106df5790610532565b634e487b7160e01b82526011600452602482fd5b50600090565b60405162461bcd60e51b8152602060048201526012602482015271496e707574206d757374206265203e3d203160701b6044820152606490fd5b80156106f35760019060008113806001146107e157156107b9575b80029080805b80821161078a575050600081136001600160ff1b038390048211166104185760008112600160ff1b839005821216610418570290565b90926001600160ff1b038190048111610418578184166107b0575b800292811c90610754565b809202916107a5565b6001600160ff1b0381900581121561074e57634e487b7160e01b600052601160045260246000fd5b506001600160ff1b0381900481111561074e57634e487b7160e01b600052601160045260246000fd5b818102929160008212600160ff1b82141661041857818405149015171561041857565b9061083b6020820151610c10565b9061085f61085960606108516040850151610c10565b930151610c10565b92610733565b8015610a98578160011b90828205600214831517156104185760008215610a8457600160ff1b82146000198414166106b4575005906000821315610a3457600119810290600160ff1b811460011661041857600119820503610418576101026108cb916100fc86610c10565b670de0b6b3a764000081116109f8576108e390610c10565b600081670de0b6b3a7640000039112670de0b6b3a76400008212811690670de0b6b3a76400008313901516176104185760008113156109b3578260011b92600284050361041857670de0b6b3a764000061094e6100fc92610948610955968498610ddb565b9461080a565b0591610c10565b05600081131561097e576000811261096a5790565b635467221960e11b60005260045260246000fd5b60405162461bcd60e51b815260206004820152600d60248201526c76617269616e63655f7a65726f60981b6044820152606490fd5b60405162461bcd60e51b815260206004820152601c60248201527f50323a206d65616e526576657273696f6e456666656374203c3d2030000000006044820152606490fd5b60405162461bcd60e51b815260206004820152601460248201527350323a20657870436f6d706f6e656e74203e203160601b6044820152606490fd5b60405162461bcd60e51b815260206004820152602260248201527f50313a2042617365207363616c696e67206973206c657373207468616e207a65604482015261726f60f01b6064820152608490fd5b634e487b7160e01b81526012600452602490fd5b60405162461bcd60e51b815260206004820152601860248201527f50313a207369676d6153717561726564206973207a65726f00000000000000006044820152606490fd5b600160ff1b81146104185760000390565b600181111561050557806001600160801b821015610bff575b600482600160401b610bb1941015610bf2575b640100000000811015610be5575b62010000811015610bd8575b610100811015610bcc575b6010811015610bc0575b1015610bb8575b60030260011c610b6081846104cd565b0160011c610b6e81846104cd565b0160011c610b7c81846104cd565b0160011c610b8a81846104cd565b0160011c610b9881846104cd565b0160011c610ba681846104cd565b0160011c80926104cd565b8111900390565b60011b610b50565b811c9160021b91610b49565b60081c91811b91610b3f565b60101c9160081b91610b34565b60201c9160101b91610b28565b60401c9160201b91610b1a565b5050608081901c600160401b610b07565b6001600160ff1b038111610c215790565b63123baf0360e11b60005260045260246000fd5b15610c3c57565b60405162461bcd60e51b81526020600482015260116024820152704558505f4f55545f4f465f424f554e445360781b6044820152606490fd5b15610c7c57565b60405162461bcd60e51b815260206004820152600d60248201526c4558505f554e444552464c4f5760981b6044820152606490fd5b60001981146104185760010190565b9060006804c53ecdc18a60000083131580610dc7575b610cdf90610c35565b8215610db957808312610d8057670de0b6b3a7640000808404930692670de0b6b3a76400009181610d61575b5050670de0b6b3a764000090816001905b6008821115610d32575050610505929350610e1a565b610d55610d4e610d5b9288610d48869896610481565b91610f4a565b80936104c0565b93610cb1565b90610d1c565b905b80821015610d0b579091610d78600191610eb1565b920190610d63565b9091610db09061010290610d99600160ff1b8213610c75565b6ec097ce7bc90715b34b9f10000000009350610add565b610505916104cd565b50670de0b6b3a76400009150565b506804c53ecdc18a5fffff19831215610cd6565b906001821115610e0c57610e06670de0b6b3a7640000916100fc610e0161050595610508565b610c10565b05610cc0565b5050670de0b6b3a764000090565b91909160008382029160001985820991838084109303928084039314610e9e5782670de0b6b3a76400001115610e8c57507faccb18165bd6fe31ae1cf318dc5b51eee0e1ba569b88cd74c1773b91fac106699394670de0b6b3a7640000910990828211900360ee1b910360121c170290565b634e487b71905260116020526024601cfd5b505050670de0b6b3a76400009192500490565b9060006725b946ebc0b361738302906000196725b946ebc0b36173850990828083109203918083039214610f395781670de0b6b3a76400001115610e8c5750670de0b6b3a76400006725b946ebc0b361737faccb18165bd6fe31ae1cf318dc5b51eee0e1ba569b88cd74c1773b91fac1066994950990828211900360ee1b910360121c170290565b5050670de0b6b3a764000090049150565b918183029160001981850993838086109503948086039514610fde5784831115610fc55790829109816000038216809204600281600302188082026002030280820260020302808202600203028082026002030280820260020302809102600203029360018380600003040190848311900302920304170290565b82634e487b71600052156003026011186020526024601cfd5b50509061050592506104cd56fea264697066735822122037ee7bb70bd4d25170d9d78f66cb22041fde8ed85da63b70552c010f2158ec3e64736f6c634300081b0033",
  "linkReferences": {},
  "deployedLinkReferences": {}
}